{
  "contractName": "KtcFoundation",
  "abi": [
    {
      "constant": true,
      "inputs": [
        {
          "name": "",
          "type": "uint256"
        }
      ],
      "name": "members",
      "outputs": [
        {
          "name": "",
          "type": "address"
        }
      ],
      "payable": false,
      "stateMutability": "view",
      "type": "function",
      "signature": "0x5daf08ca"
    },
    {
      "constant": true,
      "inputs": [
        {
          "name": "",
          "type": "address"
        }
      ],
      "name": "memberRole",
      "outputs": [
        {
          "name": "",
          "type": "uint256"
        }
      ],
      "payable": false,
      "stateMutability": "view",
      "type": "function",
      "signature": "0xd5ce537c"
    },
    {
      "inputs": [],
      "payable": false,
      "stateMutability": "nonpayable",
      "type": "constructor",
      "signature": "constructor"
    },
    {
      "constant": false,
      "inputs": [
        {
          "name": "_address",
          "type": "address"
        }
      ],
      "name": "addMember",
      "outputs": [],
      "payable": false,
      "stateMutability": "nonpayable",
      "type": "function",
      "signature": "0xca6d56dc"
    },
    {
      "constant": false,
      "inputs": [
        {
          "name": "_address",
          "type": "address"
        }
      ],
      "name": "removeMember",
      "outputs": [],
      "payable": false,
      "stateMutability": "nonpayable",
      "type": "function",
      "signature": "0x0b1ca49a"
    },
    {
      "constant": true,
      "inputs": [],
      "name": "getMemberCount",
      "outputs": [
        {
          "name": "",
          "type": "uint256"
        }
      ],
      "payable": false,
      "stateMutability": "view",
      "type": "function",
      "signature": "0x997072f7"
    },
    {
      "constant": true,
      "inputs": [
        {
          "name": "_index",
          "type": "uint256"
        }
      ],
      "name": "getMember",
      "outputs": [
        {
          "name": "",
          "type": "address"
        },
        {
          "name": "",
          "type": "uint256"
        }
      ],
      "payable": false,
      "stateMutability": "view",
      "type": "function",
      "signature": "0xab3545e5"
    },
    {
      "constant": false,
      "inputs": [
        {
          "name": "_address",
          "type": "address"
        },
        {
          "name": "_role",
          "type": "uint256"
        }
      ],
      "name": "changeRole",
      "outputs": [],
      "payable": false,
      "stateMutability": "nonpayable",
      "type": "function",
      "signature": "0x0acfd58e"
    },
    {
      "constant": true,
      "inputs": [
        {
          "name": "_address",
          "type": "address"
        }
      ],
      "name": "getRole",
      "outputs": [
        {
          "name": "",
          "type": "uint256"
        }
      ],
      "payable": false,
      "stateMutability": "view",
      "type": "function",
      "signature": "0x44276733"
    }
  ],
  "bytecode": "0x608060405234801561001057600080fd5b5060008054600160a060020a031990811633178083556001805480820182557fb10e2d527612073b26eecdfd717e6a320cf44b4afac2b0732d9fcbe2b7fa0cf6018054909316600160a060020a03928316179092558254168252600260205260409091205561059e806100846000396000f3fe60806040526004361061008d5763ffffffff7c01000000000000000000000000000000000000000000000000000000006000350416630acfd58e81146100925780630b1ca49a146100cd57806344276733146101005780635daf08ca14610145578063997072f71461018b578063ab3545e5146101a0578063ca6d56dc146101ed578063d5ce537c14610220575b600080fd5b34801561009e57600080fd5b506100cb600480360360408110156100b557600080fd5b50600160a060020a038135169060200135610253565b005b3480156100d957600080fd5b506100cb600480360360208110156100f057600080fd5b5035600160a060020a0316610298565b34801561010c57600080fd5b506101336004803603602081101561012357600080fd5b5035600160a060020a03166103e2565b60408051918252519081900360200190f35b34801561015157600080fd5b5061016f6004803603602081101561016857600080fd5b50356103fd565b60408051600160a060020a039092168252519081900360200190f35b34801561019757600080fd5b50610133610425565b3480156101ac57600080fd5b506101ca600480360360208110156101c357600080fd5b503561042c565b60408051600160a060020a03909316835260208301919091528051918290030190f35b3480156101f957600080fd5b506100cb6004803603602081101561021057600080fd5b5035600160a060020a0316610470565b34801561022c57600080fd5b506101336004803603602081101561024357600080fd5b5035600160a060020a0316610519565b3360009081526002602052604090205460011461026f57600080fd5b6004811061027c57600080fd5b600160a060020a03909116600090815260026020526040902055565b336000908152600260205260409020546001146102b457600080fd5b60005b6001548110156103dd5781600160a060020a03166001828154811015156102da57fe5b600091825260209091200154600160a060020a031614156103d5576001546000190181101561036a5760018054600019810190811061031557fe5b60009182526020909120015460018054600160a060020a03909216918390811061033b57fe5b9060005260206000200160006101000a815481600160a060020a030219169083600160a060020a031602179055505b60018054600019810190811061037c57fe5b6000918252602090912001805473ffffffffffffffffffffffffffffffffffffffff191690556001805460001901906103b5908261052b565b5050600160a060020a0381166000908152600260205260408120556103df565b6001016102b7565b505b50565b600160a060020a031660009081526002602052604090205490565b600180548290811061040b57fe5b600091825260209091200154600160a060020a0316905081565b6001545b90565b600080600060018481548110151561044057fe5b6000918252602080832090910154600160a060020a03168083526002909152604090912054909350915050915091565b3360009081526002602052604090205460011461048c57600080fd5b600160a060020a038116600090815260026020526040902054156104af57600080fd5b600180548082019091557fb10e2d527612073b26eecdfd717e6a320cf44b4afac2b0732d9fcbe2b7fa0cf6018054600160a060020a0390921673ffffffffffffffffffffffffffffffffffffffff1990921682179055600090815260026020526040902060039055565b60026020526000908152604090205481565b81548183558181111561054f5760008381526020902061054f918101908301610554565b505050565b61042991905b8082111561056e576000815560010161055a565b509056fea165627a7a72305820f372ba0fa56b68cb3d78f34641678683617c842536e52ba83bb64e19c19aea3b0029",
  "source": "pragma solidity  >=0.4.2;\r\n\r\n//import \"openzeppelin-solidity/contracts/token/ERC20/ERC20.sol\";\r\n//import \"openzeppelin-solidity/contracts/token/ERC20/ERC20Detailed.sol\";\r\n//import \"openzeppelin-solidity/contracts/math/SafeMath.sol\";\r\n\r\n/**  \r\n* @title KtcFoundation manages a list of members with roles  \r\n*/  \r\ncontract KtcFoundation {\r\n\taddress private owner;\r\n\tmodifier onlyOwner(){\r\n\t\trequire(msg.sender == owner);\r\n\t\t_;\r\n\t}\r\n\tmodifier onlyAdmin(){\r\n\t\trequire( memberRole[msg.sender] == ROLE_ADMIN );\r\n\t\t_;\r\n\t}\r\n\t\r\n\t//List of members\r\n\taddress[] public members;\r\n\t\r\n\t//A list of members\r\n\tmapping (address => uint ) public memberRole;\r\n\t\r\n\t\r\n\t//A list of roles\r\n\tuint constant ROLE_ADMIN = 1;\r\n\tuint constant ROLE_MANAGER = 2;\r\n\tuint constant ROLE_MEMBER = 3;\r\n\r\n\r\n\tconstructor () public {\r\n\t\towner = msg.sender;\r\n\t\tmembers.push(owner);\r\n\t\tmemberRole[owner] = ROLE_ADMIN;\r\n\t}\r\n\t\r\n\t\r\n\tfunction addMember( address _address ) public onlyAdmin {\r\n\t\t//address given is not already a member \r\n\t\trequire( memberRole[_address] == 0 );\r\n\t\t\r\n\t\tmembers.push(_address);\r\n\t\tmemberRole[_address] = ROLE_MEMBER;\r\n\t}\r\n\t\r\n\tfunction removeMember( address _address ) public onlyAdmin {\r\n\t\tfor ( uint i =0; i < members.length; i++){\r\n\t\t\tif ( members[i] == _address ){\r\n\t\t\t\t//if i is not the last element, \"swap\" with last\r\n\t\t\t\tif (i < members.length - 1){\r\n\t\t\t\t\tmembers[i] = members[members.length -1];\r\n\t\t\t\t}\r\n\t\t\t\t//remove last element\r\n\t\t\t\tdelete members[members.length -1];\r\n\t\t\t\tmembers.length = members.length - 1;\r\n\t\t\t\t\r\n\t\t\t\tmemberRole[_address] = 0;\r\n\t\t\t\treturn;\r\n\t\t\t}\r\n\t\t}\r\n\t}\r\n\t\r\n\tfunction getMemberCount() public view returns (uint) {\r\n\t\treturn members.length;\r\n\t}\r\n\t\r\n\tfunction getMember(uint _index) public view returns (address, uint ){\r\n\t\taddress addr = members [ _index];\r\n\t\treturn (addr, memberRole[addr] );\r\n\t}\r\n\t\r\n\t\r\n\tfunction changeRole(address _address, uint _role) public onlyAdmin {\r\n\t\t//Role must exist\r\n\t\trequire ( _role < ROLE_MEMBER + 1 );\r\n\t\t\r\n\t\tmemberRole[_address] = _role;\r\n\t}\r\n\t\r\n\tfunction getRole( address _address ) public view returns (uint) {\r\n\t\treturn memberRole[ _address ];\r\n\t}\r\n}",
  "sourcePath": "C:/data/crypto/blockwise/projects/bibo/kitcoin/kitcoinDAO/contracts/KtcFoundation.sol",
  "compiler": {
    "name": "solc",
    "version": "0.5.0+commit.1d4f565a.Emscripten.clang"
  },
  "schemaVersion": "3.0.2",
  "updatedAt": "2020-02-12T08:23:58.553Z",
  "devdoc": {
    "methods": {},
    "title": "KtcFoundation manages a list of members with roles  \r"
  },
  "userdoc": {
    "methods": {}
  }
}