{
  "contractName": "KtcFoundation",
  "abi": [
    {
      "constant": true,
      "inputs": [
        {
          "name": "",
          "type": "uint256"
        }
      ],
      "name": "members",
      "outputs": [
        {
          "name": "",
          "type": "address"
        }
      ],
      "payable": false,
      "stateMutability": "view",
      "type": "function",
      "signature": "0x5daf08ca"
    },
    {
      "constant": true,
      "inputs": [
        {
          "name": "",
          "type": "address"
        }
      ],
      "name": "memberRole",
      "outputs": [
        {
          "name": "",
          "type": "uint256"
        }
      ],
      "payable": false,
      "stateMutability": "view",
      "type": "function",
      "signature": "0xd5ce537c"
    },
    {
      "inputs": [],
      "payable": false,
      "stateMutability": "nonpayable",
      "type": "constructor",
      "signature": "constructor"
    },
    {
      "constant": false,
      "inputs": [
        {
          "name": "_address",
          "type": "address"
        }
      ],
      "name": "addMember",
      "outputs": [],
      "payable": false,
      "stateMutability": "nonpayable",
      "type": "function",
      "signature": "0xca6d56dc"
    },
    {
      "constant": false,
      "inputs": [
        {
          "name": "_address",
          "type": "address"
        }
      ],
      "name": "removeMember",
      "outputs": [],
      "payable": false,
      "stateMutability": "nonpayable",
      "type": "function",
      "signature": "0x0b1ca49a"
    },
    {
      "constant": true,
      "inputs": [],
      "name": "getMemberCount",
      "outputs": [
        {
          "name": "",
          "type": "uint256"
        }
      ],
      "payable": false,
      "stateMutability": "view",
      "type": "function",
      "signature": "0x997072f7"
    },
    {
      "constant": true,
      "inputs": [
        {
          "name": "_index",
          "type": "uint256"
        }
      ],
      "name": "getMember",
      "outputs": [
        {
          "name": "",
          "type": "address"
        },
        {
          "name": "",
          "type": "uint256"
        }
      ],
      "payable": false,
      "stateMutability": "view",
      "type": "function",
      "signature": "0xab3545e5"
    },
    {
      "constant": false,
      "inputs": [
        {
          "name": "_address",
          "type": "address"
        },
        {
          "name": "_role",
          "type": "uint256"
        }
      ],
      "name": "changeRole",
      "outputs": [],
      "payable": false,
      "stateMutability": "nonpayable",
      "type": "function",
      "signature": "0x0acfd58e"
    },
    {
      "constant": true,
      "inputs": [
        {
          "name": "_address",
          "type": "address"
        }
      ],
      "name": "getRole",
      "outputs": [
        {
          "name": "",
          "type": "uint256"
        }
      ],
      "payable": false,
      "stateMutability": "view",
      "type": "function",
      "signature": "0x44276733"
    }
  ],
  "bytecode": "0x608060405234801561001057600080fd5b5060008054600160a060020a03199081163317808355600180548082019091557fb10e2d527612073b26eecdfd717e6a320cf44b4afac2b0732d9fcbe2b7fa0cf6018054909216600160a060020a03918216179091558154168152600260205260409020600390556105cf806100876000396000f3fe60806040526004361061008d5763ffffffff7c01000000000000000000000000000000000000000000000000000000006000350416630acfd58e81146100925780630b1ca49a146100cd57806344276733146101005780635daf08ca14610145578063997072f71461018b578063ab3545e5146101a0578063ca6d56dc146101ed578063d5ce537c14610220575b600080fd5b34801561009e57600080fd5b506100cb600480360360408110156100b557600080fd5b50600160a060020a038135169060200135610253565b005b3480156100d957600080fd5b506100cb600480360360208110156100f057600080fd5b5035600160a060020a03166102cc565b34801561010c57600080fd5b506101336004803603602081101561012357600080fd5b5035600160a060020a0316610416565b60408051918252519081900360200190f35b34801561015157600080fd5b5061016f6004803603602081101561016857600080fd5b5035610431565b60408051600160a060020a039092168252519081900360200190f35b34801561019757600080fd5b50610133610459565b3480156101ac57600080fd5b506101ca600480360360208110156101c357600080fd5b5035610460565b60408051600160a060020a03909316835260208301919091528051918290030190f35b3480156101f957600080fd5b506100cb6004803603602081101561021057600080fd5b5035600160a060020a03166104a4565b34801561022c57600080fd5b506101336004803603602081101561024357600080fd5b5035600160a060020a031661054a565b3360009081526002602052604090205460031461026f57600080fd5b60008111801561027f5750600381105b151561028a57600080fd5b600160a060020a038216600090815260026020526040902054600310156102b057600080fd5b600160a060020a03909116600090815260026020526040902055565b336000908152600260205260409020546003146102e857600080fd5b60005b6001548110156104115781600160a060020a031660018281548110151561030e57fe5b600091825260209091200154600160a060020a03161415610409576001546000190181101561039e5760018054600019810190811061034957fe5b60009182526020909120015460018054600160a060020a03909216918390811061036f57fe5b9060005260206000200160006101000a815481600160a060020a030219169083600160a060020a031602179055505b6001805460001981019081106103b057fe5b6000918252602090912001805473ffffffffffffffffffffffffffffffffffffffff191690556001805460001901906103e9908261055c565b5050600160a060020a038116600090815260026020526040812055610413565b6001016102eb565b505b50565b600160a060020a031660009081526002602052604090205490565b600180548290811061043f57fe5b600091825260209091200154600160a060020a0316905081565b6001545b90565b600080600060018481548110151561047457fe5b6000918252602080832090910154600160a060020a03168083526002909152604090912054909350915050915091565b336000908152600260205260409020546003146104c057600080fd5b600160a060020a038116600090815260026020526040902054156104e357600080fd5b6001805480820182557fb10e2d527612073b26eecdfd717e6a320cf44b4afac2b0732d9fcbe2b7fa0cf6018054600160a060020a0390931673ffffffffffffffffffffffffffffffffffffffff199093168317905560009182526002602052604090912055565b60026020526000908152604090205481565b81548183558181111561058057600083815260209020610580918101908301610585565b505050565b61045d91905b8082111561059f576000815560010161058b565b509056fea165627a7a723058205f171cc7181549c33a6068ad203ffb152dbd018473caf453b1d0e055e9e64f8e0029",
  "source": "pragma solidity  >=0.4.17;\r\n\r\n\r\n/**  \r\n* @title KtcFoundation manages a list of members with roles  \r\n*/  \r\ncontract KtcFoundation {\r\n\taddress private owner;\r\n\tmodifier onlyOwner(){\r\n\t\trequire(msg.sender == owner);\r\n\t\t_;\r\n\t}\r\n\tmodifier onlyAdmin(){\r\n\t\trequire( memberRole[msg.sender] == ROLE_ADMIN );\r\n\t\t_;\r\n\t}\r\n\t\r\n\t//List of members\r\n\taddress[] public members;\r\n\t\r\n\t//A list of members\r\n\tmapping (address => uint ) public memberRole;\r\n\t\r\n\t\r\n\t//A list of roles\r\n\tuint constant ROLE_ADMIN = 3;\r\n\tuint constant ROLE_MANAGER = 2;\r\n\tuint constant ROLE_MEMBER = 1;\r\n\r\n\r\n\tconstructor () public {\r\n\t\towner = msg.sender;\r\n\t\tmembers.push(owner);\r\n\t\tmemberRole[owner] = ROLE_ADMIN;\r\n\t}\r\n\t\r\n\t\r\n\tfunction addMember( address _address ) public onlyAdmin {\r\n\t\t//address given is not already a member \r\n\t\trequire( memberRole[_address] == 0 );\r\n\t\t\r\n\t\tmembers.push(_address);\r\n\t\tmemberRole[_address] = ROLE_MEMBER;\r\n\t}\r\n\t\r\n\tfunction removeMember( address _address ) public onlyAdmin {\r\n\t\tfor ( uint i =0; i < members.length; i++){\r\n\t\t\tif ( members[i] == _address ){\r\n\t\t\t\t//if i is not the last element, \"swap\" with last\r\n\t\t\t\tif (i < members.length - 1){\r\n\t\t\t\t\tmembers[i] = members[members.length -1];\r\n\t\t\t\t}\r\n\t\t\t\t//remove last element\r\n\t\t\t\tdelete members[members.length -1];\r\n\t\t\t\tmembers.length = members.length - 1;\r\n\t\t\t\t\r\n\t\t\t\tmemberRole[_address] = 0;\r\n\t\t\t\treturn;\r\n\t\t\t}\r\n\t\t}\r\n\t}\r\n\t\r\n\tfunction getMemberCount() public view returns (uint) {\r\n\t\treturn members.length;\r\n\t}\r\n\t\r\n\tfunction getMember(uint _index) public view returns (address, uint ){\r\n\t\taddress addr = members [ _index];\r\n\t\treturn (addr, memberRole[addr] );\r\n\t}\r\n\t\r\n\t\r\n\tfunction changeRole(address _address, uint _role) public onlyAdmin {\r\n\t\t//role among the available roles\r\n\t\trequire ( _role > 0 && _role < ROLE_ADMIN);\r\n\t\t//_address must be a member\r\n\t\trequire ( memberRole[ _address ] <= ROLE_ADMIN );\r\n\t\tmemberRole[_address] = _role;\r\n\t}\r\n\t\r\n\tfunction getRole( address _address ) public view returns (uint) {\r\n\t\treturn memberRole[ _address ];\r\n\t}\r\n}",
  "sourcePath": "C:\\data\\crypto\\blockwise\\projects\\bibo\\kitcoin\\kitcoinDAO\\contracts\\KtcFoundation.sol",
  "compiler": {
    "name": "solc",
    "version": "0.5.0+commit.1d4f565a.Emscripten.clang"
  },
  "schemaVersion": "3.0.2",
  "updatedAt": "2020-02-19T07:36:40.426Z",
  "devdoc": {
    "methods": {},
    "title": "KtcFoundation manages a list of members with roles  \r"
  },
  "userdoc": {
    "methods": {}
  }
}