{
  "contractName": "MembershipToken",
  "abi": [
    {
      "constant": true,
      "inputs": [],
      "name": "name",
      "outputs": [
        {
          "name": "",
          "type": "string"
        }
      ],
      "payable": false,
      "stateMutability": "view",
      "type": "function",
      "signature": "0x06fdde03"
    },
    {
      "constant": false,
      "inputs": [
        {
          "name": "spender",
          "type": "address"
        },
        {
          "name": "amount",
          "type": "uint256"
        }
      ],
      "name": "approve",
      "outputs": [
        {
          "name": "",
          "type": "bool"
        }
      ],
      "payable": false,
      "stateMutability": "nonpayable",
      "type": "function",
      "signature": "0x095ea7b3"
    },
    {
      "constant": true,
      "inputs": [],
      "name": "totalSupply",
      "outputs": [
        {
          "name": "",
          "type": "uint256"
        }
      ],
      "payable": false,
      "stateMutability": "view",
      "type": "function",
      "signature": "0x18160ddd"
    },
    {
      "constant": false,
      "inputs": [
        {
          "name": "sender",
          "type": "address"
        },
        {
          "name": "recipient",
          "type": "address"
        },
        {
          "name": "amount",
          "type": "uint256"
        }
      ],
      "name": "transferFrom",
      "outputs": [
        {
          "name": "",
          "type": "bool"
        }
      ],
      "payable": false,
      "stateMutability": "nonpayable",
      "type": "function",
      "signature": "0x23b872dd"
    },
    {
      "constant": true,
      "inputs": [],
      "name": "initial_supply",
      "outputs": [
        {
          "name": "",
          "type": "uint256"
        }
      ],
      "payable": false,
      "stateMutability": "view",
      "type": "function",
      "signature": "0x2405e3c6"
    },
    {
      "constant": true,
      "inputs": [],
      "name": "decimals",
      "outputs": [
        {
          "name": "",
          "type": "uint8"
        }
      ],
      "payable": false,
      "stateMutability": "view",
      "type": "function",
      "signature": "0x313ce567"
    },
    {
      "constant": false,
      "inputs": [
        {
          "name": "spender",
          "type": "address"
        },
        {
          "name": "addedValue",
          "type": "uint256"
        }
      ],
      "name": "increaseAllowance",
      "outputs": [
        {
          "name": "",
          "type": "bool"
        }
      ],
      "payable": false,
      "stateMutability": "nonpayable",
      "type": "function",
      "signature": "0x39509351"
    },
    {
      "constant": true,
      "inputs": [
        {
          "name": "",
          "type": "uint256"
        }
      ],
      "name": "members",
      "outputs": [
        {
          "name": "",
          "type": "address"
        }
      ],
      "payable": false,
      "stateMutability": "view",
      "type": "function",
      "signature": "0x5daf08ca"
    },
    {
      "constant": true,
      "inputs": [
        {
          "name": "account",
          "type": "address"
        }
      ],
      "name": "balanceOf",
      "outputs": [
        {
          "name": "",
          "type": "uint256"
        }
      ],
      "payable": false,
      "stateMutability": "view",
      "type": "function",
      "signature": "0x70a08231"
    },
    {
      "constant": true,
      "inputs": [],
      "name": "symbol",
      "outputs": [
        {
          "name": "",
          "type": "string"
        }
      ],
      "payable": false,
      "stateMutability": "view",
      "type": "function",
      "signature": "0x95d89b41"
    },
    {
      "constant": false,
      "inputs": [
        {
          "name": "spender",
          "type": "address"
        },
        {
          "name": "subtractedValue",
          "type": "uint256"
        }
      ],
      "name": "decreaseAllowance",
      "outputs": [
        {
          "name": "",
          "type": "bool"
        }
      ],
      "payable": false,
      "stateMutability": "nonpayable",
      "type": "function",
      "signature": "0xa457c2d7"
    },
    {
      "constant": true,
      "inputs": [
        {
          "name": "owner",
          "type": "address"
        },
        {
          "name": "spender",
          "type": "address"
        }
      ],
      "name": "allowance",
      "outputs": [
        {
          "name": "",
          "type": "uint256"
        }
      ],
      "payable": false,
      "stateMutability": "view",
      "type": "function",
      "signature": "0xdd62ed3e"
    },
    {
      "inputs": [],
      "payable": false,
      "stateMutability": "nonpayable",
      "type": "constructor",
      "signature": "constructor"
    },
    {
      "anonymous": false,
      "inputs": [
        {
          "indexed": true,
          "name": "from",
          "type": "address"
        },
        {
          "indexed": true,
          "name": "to",
          "type": "address"
        },
        {
          "indexed": false,
          "name": "value",
          "type": "uint256"
        }
      ],
      "name": "Transfer",
      "type": "event",
      "signature": "0xddf252ad1be2c89b69c2b068fc378daa952ba7f163c4a11628f55a4df523b3ef"
    },
    {
      "anonymous": false,
      "inputs": [
        {
          "indexed": true,
          "name": "owner",
          "type": "address"
        },
        {
          "indexed": true,
          "name": "spender",
          "type": "address"
        },
        {
          "indexed": false,
          "name": "value",
          "type": "uint256"
        }
      ],
      "name": "Approval",
      "type": "event",
      "signature": "0x8c5be1e5ebec7d5bd14f71427d1e84f3dd0314c0f7b2291e5b200ac8c7c3b925"
    },
    {
      "constant": false,
      "inputs": [
        {
          "name": "recipient",
          "type": "address"
        },
        {
          "name": "amount",
          "type": "uint256"
        }
      ],
      "name": "transfer",
      "outputs": [
        {
          "name": "",
          "type": "bool"
        }
      ],
      "payable": false,
      "stateMutability": "nonpayable",
      "type": "function",
      "signature": "0xa9059cbb"
    },
    {
      "constant": false,
      "inputs": [
        {
          "name": "_howMuch",
          "type": "uint256"
        }
      ],
      "name": "mint",
      "outputs": [],
      "payable": false,
      "stateMutability": "nonpayable",
      "type": "function",
      "signature": "0xa0712d68"
    },
    {
      "constant": false,
      "inputs": [
        {
          "name": "_howMuch",
          "type": "uint256"
        }
      ],
      "name": "burn",
      "outputs": [],
      "payable": false,
      "stateMutability": "nonpayable",
      "type": "function",
      "signature": "0x42966c68"
    },
    {
      "constant": true,
      "inputs": [],
      "name": "getMemberCount",
      "outputs": [
        {
          "name": "",
          "type": "uint256"
        }
      ],
      "payable": false,
      "stateMutability": "view",
      "type": "function",
      "signature": "0x997072f7"
    },
    {
      "constant": true,
      "inputs": [
        {
          "name": "index",
          "type": "uint256"
        }
      ],
      "name": "getMember",
      "outputs": [
        {
          "name": "",
          "type": "address"
        }
      ],
      "payable": false,
      "stateMutability": "view",
      "type": "function",
      "signature": "0xab3545e5"
    },
    {
      "constant": true,
      "inputs": [
        {
          "name": "_address",
          "type": "address"
        }
      ],
      "name": "isMember",
      "outputs": [
        {
          "name": "",
          "type": "bool"
        }
      ],
      "payable": false,
      "stateMutability": "view",
      "type": "function",
      "signature": "0xa230c524"
    },
    {
      "constant": false,
      "inputs": [
        {
          "name": "_address",
          "type": "address"
        },
        {
          "name": "_until",
          "type": "uint256"
        }
      ],
      "name": "lockUntil",
      "outputs": [],
      "payable": false,
      "stateMutability": "nonpayable",
      "type": "function",
      "signature": "0x6e0113f8"
    }
  ],
  "bytecode": "0x60806040523480156200001157600080fd5b50604080518082018252600881527f4a694a696e4875690000000000000000000000000000000000000000000000006020808301918252835180850190945260038085527f4a4a4800000000000000000000000000000000000000000000000000000000009185019190915282519293926000926200009192916200033b565b508151620000a79060049060208501906200033b565b506005805460ff191660ff9290921691909117905550620000f6905033620000d764010000000062000194810204565b60ff16600a0a612710026200019e640100000000026401000000009004565b6005805461010060a860020a0319163361010090810291909117825560078054600181810183557fa66cc928b5edb82af9bd49922954155ab7b0942694bea4ce44661d9a8736c6889182018054600160a060020a0319908116909155855484549283019094559181018054600160a060020a0394869004851693169290921790915592549190910416600090815260086020526040902055620003dd565b60055460ff165b90565b600160a060020a03821615156200021657604080517f08c379a000000000000000000000000000000000000000000000000000000000815260206004820152601f60248201527f45524332303a206d696e7420746f20746865207a65726f206164647265737300604482015290519081900360640190fd5b6002546200023390826401000000006200103d620002bf82021704565b600255600160a060020a0382166000908152602081905260409020546200026990826401000000006200103d620002bf82021704565b600160a060020a0383166000818152602081815260408083209490945583518581529351929391927fddf252ad1be2c89b69c2b068fc378daa952ba7f163c4a11628f55a4df523b3ef9281900390910190a35050565b6000828201838110156200033457604080517f08c379a000000000000000000000000000000000000000000000000000000000815260206004820152601b60248201527f536166654d6174683a206164646974696f6e206f766572666c6f770000000000604482015290519081900360640190fd5b9392505050565b828054600181600116156101000203166002900490600052602060002090601f016020900481019282601f106200037e57805160ff1916838001178555620003ae565b82800160010185558215620003ae579182015b82811115620003ae57825182559160200191906001019062000391565b50620003bc929150620003c0565b5090565b6200019b91905b80821115620003bc5760008155600101620003c7565b61138480620003ed6000396000f3fe6080604052600436106101065763ffffffff7c010000000000000000000000000000000000000000000000000000000060003504166306fdde03811461010b578063095ea7b31461019557806318160ddd146101e257806323b872dd146102095780632405e3c61461024c578063313ce56714610261578063395093511461028c57806342966c68146102c55780635daf08ca146102f15780636e0113f81461033757806370a082311461037057806395d89b41146103a3578063997072f7146103b8578063a0712d68146103cd578063a230c524146103f7578063a457c2d71461042a578063a9059cbb14610463578063ab3545e51461049c578063dd62ed3e146104c6575b600080fd5b34801561011757600080fd5b50610120610501565b6040805160208082528351818301528351919283929083019185019080838360005b8381101561015a578181015183820152602001610142565b50505050905090810190601f1680156101875780820380516001836020036101000a031916815260200191505b509250505060405180910390f35b3480156101a157600080fd5b506101ce600480360360408110156101b857600080fd5b50600160a060020a038135169060200135610597565b604080519115158252519081900360200190f35b3480156101ee57600080fd5b506101f76105b4565b60408051918252519081900360200190f35b34801561021557600080fd5b506101ce6004803603606081101561022c57600080fd5b50600160a060020a038135811691602081013590911690604001356105ba565b34801561025857600080fd5b506101f7610699565b34801561026d57600080fd5b5061027661069f565b6040805160ff9092168252519081900360200190f35b34801561029857600080fd5b506101ce600480360360408110156102af57600080fd5b50600160a060020a0381351690602001356106a8565b3480156102d157600080fd5b506102ef600480360360208110156102e857600080fd5b50356106fc565b005b3480156102fd57600080fd5b5061031b6004803603602081101561031457600080fd5b5035610770565b60408051600160a060020a039092168252519081900360200190f35b34801561034357600080fd5b506102ef6004803603604081101561035a57600080fd5b50600160a060020a038135169060200135610798565b34801561037c57600080fd5b506101f76004803603602081101561039357600080fd5b5035600160a060020a03166107b4565b3480156103af57600080fd5b506101206107cf565b3480156103c457600080fd5b506101f7610830565b3480156103d957600080fd5b506102ef600480360360208110156103f057600080fd5b5035610836565b34801561040357600080fd5b506101ce6004803603602081101561041a57600080fd5b5035600160a060020a03166108b8565b34801561043657600080fd5b506101ce6004803603604081101561044d57600080fd5b50600160a060020a0381351690602001356108e7565b34801561046f57600080fd5b506101ce6004803603604081101561048657600080fd5b50600160a060020a038135169060200135610999565b3480156104a857600080fd5b5061031b600480360360208110156104bf57600080fd5b5035610bba565b3480156104d257600080fd5b506101f7600480360360408110156104e957600080fd5b50600160a060020a0381358116916020013516610be6565b60038054604080516020601f600260001961010060018816150201909516949094049384018190048102820181019092528281526060939092909183018282801561058d5780601f106105625761010080835404028352916020019161058d565b820191906000526020600020905b81548152906001019060200180831161057057829003601f168201915b5050505050905090565b60006105ab6105a4610c11565b8484610c15565b50600192915050565b60025490565b60006105c7848484610d82565b61068f846105d3610c11565b61068a85606060405190810160405280602881526020017f45524332303a207472616e7366657220616d6f756e742065786365656473206181526020017f6c6c6f77616e6365000000000000000000000000000000000000000000000000815250600160008b600160a060020a0316600160a060020a031681526020019081526020016000206000610663610c11565b600160a060020a03168152602081019190915260400160002054919063ffffffff610fa316565b610c15565b5060019392505050565b61271081565b60055460ff1690565b60006105ab6106b5610c11565b8461068a85600160006106c6610c11565b600160a060020a03908116825260208083019390935260409182016000908120918c16815292529020549063ffffffff61103d16565b6005546101009004600160a060020a03163314610763576040805160e560020a62461bcd02815260206004820152601360248201527f52657175697265206265696e67206f776e657200000000000000000000000000604482015290519081900360640190fd5b61076d33826110a1565b50565b600780548290811061077e57fe5b600091825260209091200154600160a060020a0316905081565b600160a060020a03909116600090815260066020526040902055565b600160a060020a031660009081526020819052604090205490565b60048054604080516020601f600260001961010060018816150201909516949094049384018190048102820181019092528281526060939092909183018282801561058d5780601f106105625761010080835404028352916020019161058d565b60075490565b6005546101009004600160a060020a0316331461089d576040805160e560020a62461bcd02815260206004820152601360248201527f52657175697265206265696e67206f776e657200000000000000000000000000604482015290519081900360640190fd5b60055461076d906101009004600160a060020a031682611221565b600160a060020a03811660009081526008602052604081205415156108de5760006108e1565b60015b92915050565b60006105ab6108f4610c11565b8461068a85606060405190810160405280602581526020017f45524332303a2064656372656173656420616c6c6f77616e63652062656c6f7781526020017f207a65726f00000000000000000000000000000000000000000000000000000081525060016000610962610c11565b600160a060020a03908116825260208083019390935260409182016000908120918d1681529252902054919063ffffffff610fa316565b33600090815260066020526040812054431015610a00576040805160e560020a62461bcd02815260206004820152600c60248201527f46756e6473206c6f636b65640000000000000000000000000000000000000000604482015290519081900360640190fd5b600160a060020a0383161515610a1557600080fd5b610a27610a20610c11565b8484610d82565b600160a060020a0383166000908152600860205260409020541515610ab05760078054600160a060020a0385166000818152600860205260408120839055600183018455929092527fa66cc928b5edb82af9bd49922954155ab7b0942694bea4ce44661d9a8736c68801805473ffffffffffffffffffffffffffffffffffffffff191690911790555b610ab9336107b4565b15156105ab573360009081526008602052604090205460075460001901811415610b1a57600780546000198101908110610aef57fe5b6000918252602090912001805473ffffffffffffffffffffffffffffffffffffffff19169055610bb0565b83600782815481101515610b2a57fe5b6000918252602080832091909101805473ffffffffffffffffffffffffffffffffffffffff1916600160a060020a03948516179055338252600890526040808220829055918616815220819055600780546000198101908110610b8957fe5b6000918252602090912001805473ffffffffffffffffffffffffffffffffffffffff191690555b5050600192915050565b6000600782815481101515610bcb57fe5b600091825260209091200154600160a060020a031692915050565b600160a060020a03918216600090815260016020908152604080832093909416825291909152205490565b3390565b600160a060020a0383161515610c9a576040805160e560020a62461bcd028152602060048201526024808201527f45524332303a20617070726f76652066726f6d20746865207a65726f2061646460448201527f7265737300000000000000000000000000000000000000000000000000000000606482015290519081900360840190fd5b600160a060020a0382161515610d20576040805160e560020a62461bcd02815260206004820152602260248201527f45524332303a20617070726f766520746f20746865207a65726f20616464726560448201527f7373000000000000000000000000000000000000000000000000000000000000606482015290519081900360840190fd5b600160a060020a03808416600081815260016020908152604080832094871680845294825291829020859055815185815291517f8c5be1e5ebec7d5bd14f71427d1e84f3dd0314c0f7b2291e5b200ac8c7c3b9259281900390910190a3505050565b600160a060020a0383161515610e08576040805160e560020a62461bcd02815260206004820152602560248201527f45524332303a207472616e736665722066726f6d20746865207a65726f20616460448201527f6472657373000000000000000000000000000000000000000000000000000000606482015290519081900360840190fd5b600160a060020a0382161515610e8e576040805160e560020a62461bcd02815260206004820152602360248201527f45524332303a207472616e7366657220746f20746865207a65726f206164647260448201527f6573730000000000000000000000000000000000000000000000000000000000606482015290519081900360840190fd5b60408051606081018252602681527f45524332303a207472616e7366657220616d6f756e74206578636565647320626020808301919091527f616c616e6365000000000000000000000000000000000000000000000000000082840152600160a060020a0386166000908152908190529190912054610f1491839063ffffffff610fa316565b600160a060020a038085166000908152602081905260408082209390935590841681522054610f49908263ffffffff61103d16565b600160a060020a038084166000818152602081815260409182902094909455805185815290519193928716927fddf252ad1be2c89b69c2b068fc378daa952ba7f163c4a11628f55a4df523b3ef92918290030190a3505050565b600081848411156110355760405160e560020a62461bcd0281526004018080602001828103825283818151815260200191508051906020019080838360005b83811015610ffa578181015183820152602001610fe2565b50505050905090810190601f1680156110275780820380516001836020036101000a031916815260200191505b509250505060405180910390fd5b505050900390565b60008282018381101561109a576040805160e560020a62461bcd02815260206004820152601b60248201527f536166654d6174683a206164646974696f6e206f766572666c6f770000000000604482015290519081900360640190fd5b9392505050565b600160a060020a0382161515611127576040805160e560020a62461bcd02815260206004820152602160248201527f45524332303a206275726e2066726f6d20746865207a65726f2061646472657360448201527f7300000000000000000000000000000000000000000000000000000000000000606482015290519081900360840190fd5b60408051606081018252602281527f45524332303a206275726e20616d6f756e7420657863656564732062616c616e6020808301919091527f636500000000000000000000000000000000000000000000000000000000000082840152600160a060020a03851660009081529081905291909120546111ad91839063ffffffff610fa316565b600160a060020a0383166000908152602081905260409020556002546111d9908263ffffffff61131616565b600255604080518281529051600091600160a060020a038516917fddf252ad1be2c89b69c2b068fc378daa952ba7f163c4a11628f55a4df523b3ef9181900360200190a35050565b600160a060020a0382161515611281576040805160e560020a62461bcd02815260206004820152601f60248201527f45524332303a206d696e7420746f20746865207a65726f206164647265737300604482015290519081900360640190fd5b600254611294908263ffffffff61103d16565b600255600160a060020a0382166000908152602081905260409020546112c0908263ffffffff61103d16565b600160a060020a0383166000818152602081815260408083209490945583518581529351929391927fddf252ad1be2c89b69c2b068fc378daa952ba7f163c4a11628f55a4df523b3ef9281900390910190a35050565b600061109a83836040805190810160405280601e81526020017f536166654d6174683a207375627472616374696f6e206f766572666c6f770000815250610fa356fea165627a7a72305820548f2d629950bdb4b621daee62caedcfd3c15dee8013cc283d7c46180ab14c9f0029",
  "source": "pragma solidity  >=0.4.2;\r\n\r\nimport \"@openzeppelin/contracts/token/ERC20/ERC20.sol\";\r\nimport \"@openzeppelin/contracts/token/ERC20/ERC20Detailed.sol\";\r\n\r\n/**  \r\n* @title MembershipToken is an ERC20 Token with 0 decimals\r\n*/  \r\ncontract MembershipToken is ERC20, ERC20Detailed {\r\n\t\r\n\taddress private owner;\r\n\tmodifier onlyOwner(){\r\n\t\trequire(msg.sender == owner, \"Require being owner\");\r\n\t\t_;\r\n\t}\r\n\t\t\r\n\t//keeps track of a user's lock date (tockens can be locked after a vote to prevent multiple voting)\r\n\tmapping ( address => uint256 ) lockedUntil;\r\n\tmodifier onlyUnlocked(){\r\n\t\trequire(lockedUntil[msg.sender] <= block.number, \"Funds locked\");\r\n\t\t_;\r\n\t}\r\n\t\r\n\t/**\r\n\t* @dev keep track of token holders = members\r\n\t*/\r\n\t//first members is 0x0 because of position problem\r\n\taddress[] public members;\r\n\t//position of member address in the members list\r\n\tmapping ( address => uint256 ) memberIndex;\r\n\r\n\tuint256 public constant initial_supply = 10000;  \r\n\r\n\t/**  \r\n\t* @dev assign totalSupply to account creating this contract \r\n\t*/\r\n\tconstructor()\r\n\t\tERC20Detailed(\"JiJinHui\", \"JJH\", 0)\r\n\t\tpublic \r\n\t{  \r\n\t\t_mint(msg.sender, initial_supply * (uint256(10)**uint256(decimals())));\r\n\t\towner = msg.sender;\r\n\t\tmembers.push(address(0));\r\n\t\tmemberIndex[owner] = members.push(owner) - 1;\r\n\t}\r\n\t\r\n\tfunction transfer(address recipient, uint256 amount) public onlyUnlocked returns (bool) {\r\n\t\t//not allowed to burn tokens\r\n\t\trequire ( recipient != address(0) );\r\n\t\t\r\n        _transfer(_msgSender(), recipient, amount);\r\n\t\t\r\n\t\t// Recipient is a new member \r\n\t\tif ( memberIndex[ recipient ] == 0 ){\r\n\t\t\tmemberIndex[ recipient ] = members.length;\r\n\t\t\tmembers.push(recipient);\r\n\t\t} //else: no change, recipient already in list\r\n\t\t\r\n\t\t// Sender isn't a member anymore\r\n\t\tif ( balanceOf(msg.sender) == 0 ){\r\n\t\t\tuint ind = memberIndex[msg.sender];\r\n\r\n\t\t\tif ( ind == members.length - 1 ){\r\n\t\t\t\t// if last element in list, just remove it\r\n\t\t\t\tdelete members[ members.length -1 ]; \r\n\t\t\t}\r\n\t\t\telse {\r\n\t\t\t\t//else replace by last element and pop last element out\r\n\t\t\t\tmembers [ ind ] = recipient;\r\n\t\t\t\tmemberIndex[ msg.sender ] = 0;\r\n\t\t\t\tmemberIndex[ recipient ] = ind;\r\n\t\t\t\tdelete members[ members.length - 1];\r\n\t\t\t}\r\n\t\t}\r\n\r\n        return true;\r\n    }\r\n\t\r\n\t/**\r\n\t* @notice Mint or burn token\r\n\t*/\r\n\tfunction mint(uint256 _howMuch) public onlyOwner {\r\n\t\t_mint(owner, _howMuch);\r\n\t}\r\n\tfunction burn(uint256 _howMuch) public onlyOwner {\r\n\t\t_burn(msg.sender, _howMuch);\r\n\t}\r\n\t\r\n\t/**\r\n\t* @notice Returns member count\r\n\t*/\r\n\tfunction getMemberCount() public view returns (uint256) {\r\n\t\treturn members.length;\r\n\t}\r\n\t/**\r\n\t* @notice Provides the Xth member of the list\r\n\t*/\r\n\tfunction getMember(uint256 index) public view returns (address){\r\n\t\treturn members[index];\r\n\t}\r\n\t\r\n\t/**\r\n\t* @notice Checks if address is a member\r\n\t*/\r\n\tfunction isMember(address _address) public view returns (bool){\r\n\t\treturn ( memberIndex[_address] != 0 ? true : false );\r\n\t}\r\n\t\r\n\t/**\r\n\t* @notice Locks a user funds (useful for preventing transfers after a vote)\r\n\t* Lazy dirty anone can call it until we find a way to make it safe or use Approve\r\n\t*/\r\n\tfunction lockUntil(address _address, uint256 _until) public {\r\n\t\tlockedUntil[ _address ] = _until;\r\n\t}\r\n}",
  "sourcePath": "C:\\data\\crypto\\blockwise\\projects\\bibo\\kitcoin\\kitcoinDAO\\contracts\\MembershipToken.sol",
  "compiler": {
    "name": "solc",
    "version": "0.5.0+commit.1d4f565a.Emscripten.clang"
  },
  "schemaVersion": "3.0.2",
  "updatedAt": "2020-02-14T09:30:12.738Z",
  "devdoc": {
    "methods": {
      "allowance(address,address)": {
        "details": "See {IERC20-allowance}."
      },
      "approve(address,uint256)": {
        "details": "See {IERC20-approve}.     * Requirements:     * - `spender` cannot be the zero address."
      },
      "balanceOf(address)": {
        "details": "See {IERC20-balanceOf}."
      },
      "constructor": {
        "details": "assign totalSupply to account creating this contract \r"
      },
      "decimals()": {
        "details": "Returns the number of decimals used to get its user representation. For example, if `decimals` equals `2`, a balance of `505` tokens should be displayed to a user as `5,05` (`505 / 10 ** 2`).     * Tokens usually opt for a value of 18, imitating the relationship between Ether and Wei.     * NOTE: This information is only used for _display_ purposes: it in no way affects any of the arithmetic of the contract, including {IERC20-balanceOf} and {IERC20-transfer}."
      },
      "decreaseAllowance(address,uint256)": {
        "details": "Atomically decreases the allowance granted to `spender` by the caller.     * This is an alternative to {approve} that can be used as a mitigation for problems described in {IERC20-approve}.     * Emits an {Approval} event indicating the updated allowance.     * Requirements:     * - `spender` cannot be the zero address. - `spender` must have allowance for the caller of at least `subtractedValue`."
      },
      "increaseAllowance(address,uint256)": {
        "details": "Atomically increases the allowance granted to `spender` by the caller.     * This is an alternative to {approve} that can be used as a mitigation for problems described in {IERC20-approve}.     * Emits an {Approval} event indicating the updated allowance.     * Requirements:     * - `spender` cannot be the zero address."
      },
      "name()": {
        "details": "Returns the name of the token."
      },
      "symbol()": {
        "details": "Returns the symbol of the token, usually a shorter version of the name."
      },
      "totalSupply()": {
        "details": "See {IERC20-totalSupply}."
      },
      "transferFrom(address,address,uint256)": {
        "details": "See {IERC20-transferFrom}.     * Emits an {Approval} event indicating the updated allowance. This is not required by the EIP. See the note at the beginning of {ERC20};     * Requirements: - `sender` and `recipient` cannot be the zero address. - `sender` must have a balance of at least `amount`. - the caller must have allowance for `sender`'s tokens of at least `amount`."
      }
    },
    "title": "MembershipToken is an ERC20 Token with 0 decimals\r"
  },
  "userdoc": {
    "methods": {
      "getMember(uint256)": {
        "notice": "Provides the Xth member of the list\r"
      },
      "getMemberCount()": {
        "notice": "Returns member count\r"
      },
      "isMember(address)": {
        "notice": "Checks if address is a member\r"
      },
      "lockUntil(address,uint256)": {
        "notice": "Locks a user funds (useful for preventing transfers after a vote)\r Lazy dirty anone can call it until we find a way to make it safe or use Approve\r"
      },
      "mint(uint256)": {
        "notice": "Mint or burn token\r"
      }
    }
  }
}