{
  "contractName": "VotingWithTokens",
  "abi": [
    {
      "constant": true,
      "inputs": [],
      "name": "LOCK_PERIOD",
      "outputs": [
        {
          "name": "",
          "type": "uint256"
        }
      ],
      "payable": false,
      "stateMutability": "view",
      "type": "function",
      "signature": "0x1820cabb"
    },
    {
      "constant": true,
      "inputs": [],
      "name": "VOTE_PERIOD",
      "outputs": [
        {
          "name": "",
          "type": "uint256"
        }
      ],
      "payable": false,
      "stateMutability": "view",
      "type": "function",
      "signature": "0xa2facc29"
    },
    {
      "inputs": [
        {
          "name": "_membershipContract",
          "type": "address"
        }
      ],
      "payable": false,
      "stateMutability": "nonpayable",
      "type": "constructor",
      "signature": "constructor"
    },
    {
      "constant": true,
      "inputs": [],
      "name": "isAdmin",
      "outputs": [
        {
          "name": "",
          "type": "bool"
        }
      ],
      "payable": false,
      "stateMutability": "view",
      "type": "function",
      "signature": "0xb6db75a0"
    },
    {
      "constant": true,
      "inputs": [],
      "name": "isMember",
      "outputs": [
        {
          "name": "",
          "type": "bool"
        }
      ],
      "payable": false,
      "stateMutability": "view",
      "type": "function",
      "signature": "0xd02982cf"
    },
    {
      "constant": false,
      "inputs": [
        {
          "name": "_address",
          "type": "address"
        }
      ],
      "name": "updateMembershipContract",
      "outputs": [],
      "payable": false,
      "stateMutability": "nonpayable",
      "type": "function",
      "signature": "0xccc48940"
    },
    {
      "constant": true,
      "inputs": [],
      "name": "getMembershipContract",
      "outputs": [
        {
          "name": "",
          "type": "address"
        }
      ],
      "payable": false,
      "stateMutability": "view",
      "type": "function",
      "signature": "0x3f6dd239"
    },
    {
      "constant": false,
      "inputs": [
        {
          "name": "_question",
          "type": "string"
        },
        {
          "name": "_duration",
          "type": "uint256"
        }
      ],
      "name": "createPoll",
      "outputs": [],
      "payable": false,
      "stateMutability": "nonpayable",
      "type": "function",
      "signature": "0xc7449cb7"
    },
    {
      "constant": true,
      "inputs": [],
      "name": "getPollsCount",
      "outputs": [
        {
          "name": "",
          "type": "uint256"
        }
      ],
      "payable": false,
      "stateMutability": "view",
      "type": "function",
      "signature": "0xe0995916"
    },
    {
      "constant": true,
      "inputs": [
        {
          "name": "_id",
          "type": "uint256"
        }
      ],
      "name": "getPoll",
      "outputs": [
        {
          "name": "",
          "type": "string"
        },
        {
          "name": "",
          "type": "bool"
        },
        {
          "name": "",
          "type": "uint256"
        },
        {
          "name": "",
          "type": "uint256"
        },
        {
          "name": "",
          "type": "uint256"
        },
        {
          "name": "",
          "type": "bool"
        },
        {
          "name": "",
          "type": "address"
        }
      ],
      "payable": false,
      "stateMutability": "view",
      "type": "function",
      "signature": "0x1a8cbcaa"
    },
    {
      "constant": false,
      "inputs": [
        {
          "name": "_pollId",
          "type": "uint256"
        },
        {
          "name": "_answer",
          "type": "bool"
        }
      ],
      "name": "castVote",
      "outputs": [],
      "payable": false,
      "stateMutability": "nonpayable",
      "type": "function",
      "signature": "0x15373e3d"
    }
  ],
  "bytecode": "0x60806040526005600255600a60035534801561001a57600080fd5b50604051602080610c438339810180604052602081101561003a57600080fd5b50516000805460018054600160a060020a0319908116331790915560a060020a60ff0219600160a060020a039094169116179190911674010000000000000000000000000000000000000000179055610bab806100986000396000f3fe6080604052600436106100a35763ffffffff7c010000000000000000000000000000000000000000000000000000000060003504166315373e3d81146100a85780631820cabb146100dc5780631a8cbcaa146101035780633f6dd239146101e9578063a2facc291461021a578063b6db75a01461022f578063c7449cb714610258578063ccc489401461030d578063d02982cf14610340578063e099591614610355575b600080fd5b3480156100b457600080fd5b506100da600480360360408110156100cb57600080fd5b5080359060200135151561036a565b005b3480156100e857600080fd5b506100f161060c565b60408051918252519081900360200190f35b34801561010f57600080fd5b5061012d6004803603602081101561012657600080fd5b5035610612565b6040518080602001881515151581526020018781526020018681526020018581526020018415151515815260200183600160a060020a0316600160a060020a03168152602001828103825289818151815260200191508051906020019080838360005b838110156101a8578181015183820152602001610190565b50505050905090810190601f1680156101d55780820380516001836020036101000a031916815260200191505b509850505050505050505060405180910390f35b3480156101f557600080fd5b506101fe610773565b60408051600160a060020a039092168252519081900360200190f35b34801561022657600080fd5b506100f1610783565b34801561023b57600080fd5b50610244610789565b604080519115158252519081900360200190f35b34801561026457600080fd5b506100da6004803603604081101561027b57600080fd5b81019060208101813564010000000081111561029657600080fd5b8201836020820111156102a857600080fd5b803590602001918460018302840111640100000000831117156102ca57600080fd5b91908080601f0160208091040260200160405190810160405280939291908181526020018383808284376000920191909152509295505091359250610821915050565b34801561031957600080fd5b506100da6004803603602081101561033057600080fd5b5035600160a060020a03166109d5565b34801561034c57600080fd5b50610244610a1b565b34801561036157600080fd5b506100f1610ab1565b610372610a1b565b15156001146103cb576040805160e560020a62461bcd02815260206004820152601360248201527f556e617574686f72697a656420616374696f6e00000000000000000000000000604482015290519081900360640190fd5b60006004838154811015156103dc57fe5b90600052602060002090600602019050438160010154111515610449576040805160e560020a62461bcd02815260206004820152600b60248201527f566f746520636c6f736564000000000000000000000000000000000000000000604482015290519081900360640190fd5b33600090815260058201602052604090205460ff16156104b3576040805160e560020a62461bcd02815260206004820152600d60248201527f416c726561647920766f74656400000000000000000000000000000000000000604482015290519081900360640190fd5b60008054604080517f70a082310000000000000000000000000000000000000000000000000000000081523360048201529051600160a060020a03909216916370a0823191602480820192602092909190829003018186803b15801561051857600080fd5b505afa15801561052c573d6000803e3d6000fd5b505050506040513d602081101561054257600080fd5b50516003830180548201905590508215156001141561056657600282018054820190555b336000818152600584016020526040808220805460ff19166001179055815460025482517f6e0113f80000000000000000000000000000000000000000000000000000000081526004810195909552430160248501529051600160a060020a039190911692636e0113f892604480830193919282900301818387803b1580156105ee57600080fd5b505af1158015610602573d6000803e3d6000fd5b5050505050505050565b60025481565b6060600080600080600080610625610ab7565b600480548a90811061063357fe5b600091825260209182902060408051600693909302909101805460026001821615610100026000190190911604601f8101859004909402830160c090810190925260a08301848152929390928492909184918401828280156106d65780601f106106ab576101008083540402835291602001916106d6565b820191906000526020600020905b8154815290600101906020018083116106b957829003601f168201915b505050505081526020016001820154815260200160028201548152602001600382015481526020016004820154815250509050600060048a81548110151561071a57fe5b600091825260208083203380855260069390930201600501815260409283902054855191860151606087015194870151608090970151929f4391909111159e50939c50949a50985060ff90931696509194509092505050565b600054600160a060020a03165b90565b60035481565b60008054604080517f70a082310000000000000000000000000000000000000000000000000000000081523360048201529051606492600160a060020a0316916370a08231916024808301926020929190829003018186803b1580156107ee57600080fd5b505afa158015610802573d6000803e3d6000fd5b505050506040513d602081101561081857600080fd5b50511015905090565b610829610789565b1515600114610882576040805160e560020a62461bcd02815260206004820152601360248201527f556e617574686f72697a656420616374696f6e00000000000000000000000000604482015290519081900360640190fd5b60008054604080517f18160ddd0000000000000000000000000000000000000000000000000000000081529051600292600160a060020a0316916318160ddd916004808301926020929190829003018186803b1580156108e157600080fd5b505afa1580156108f5573d6000803e3d6000fd5b505050506040513d602081101561090b57600080fd5b505181151561091657fe5b046001019050610924610ab7565b506040805160a081018252848152438401602080830191909152600092820183905260608201839052608082018490526004805460018101808355919094528251805193949193859360069093027f8a35acfbc15ff81a39ae7d344fd709f28e8600b4aa8c65c6b64bfe7fe36bd19b01926109a3928492910190610ae7565b506020820151816001015560408201518160020155606082015181600301556080820151816004015550505050505050565b600154600160a060020a031633146109ec57600080fd5b6000805473ffffffffffffffffffffffffffffffffffffffff1916600160a060020a0392909216919091179055565b60008054604080517f70a0823100000000000000000000000000000000000000000000000000000000815233600482015290518392600160a060020a0316916370a08231916024808301926020929190829003018186803b158015610a7f57600080fd5b505afa158015610a93573d6000803e3d6000fd5b505050506040513d6020811015610aa957600080fd5b505111905090565b60045490565b60a06040519081016040528060608152602001600081526020016000815260200160008152602001600081525090565b828054600181600116156101000203166002900490600052602060002090601f016020900481019282601f10610b2857805160ff1916838001178555610b55565b82800160010185558215610b55579182015b82811115610b55578251825591602001919060010190610b3a565b50610b61929150610b65565b5090565b61078091905b80821115610b615760008155600101610b6b56fea165627a7a723058205a70fb2a043b562c6442b5845709668a68700cc3a605bf8304c55edb169c44a20029",
  "source": "pragma solidity  >=0.4.17;\r\n\r\nimport \"./MembershipToken.sol\";\r\n\r\n\r\n/**  \r\n* @title Voting app allowing foundation members to open votes and vote  \r\n*/  \r\ncontract VotingWithTokens {\r\n\taddress private membershipContract;\r\n\tbool private enabled;\r\n\taddress private owner;\r\n\t\r\n\tuint public LOCK_PERIOD = 5;\r\n\tuint public VOTE_PERIOD = 10;\r\n\t\r\n\tmodifier onlyOwner(){\r\n\t\trequire (msg.sender == owner );\r\n\t\t_;\r\n\t}\r\n\t\r\n\tmodifier onlyAdmin(){\r\n\t\trequire( isAdmin() == true, \"Unauthorized action\");\r\n\t\t_;\r\n\t}\r\n\tmodifier onlyMember(){\r\n\t\trequire( isMember() == true, \"Unauthorized action\");\r\n\t\t_;\r\n\t}\r\n\t\r\n\t\r\n\tconstructor (address _membershipContract) public {\r\n\t\tmembershipContract = _membershipContract;\r\n\t\towner = msg.sender;\r\n\t\tenabled = true;\r\n\t}\r\n\t\r\n\tstruct Poll\r\n    {\r\n        string question;\r\n\t\tuint256 deadline;\r\n\t\tuint yes;\r\n\t\tuint answers;\r\n\t\tuint majority;\r\n\t\tmapping (address => bool) hasVoted;\r\n    }\r\n\t\r\n\t//A membership token threshold\r\n\tuint constant ROLE_ADMIN = 100;\r\n\tuint constant ROLE_MEMBER = 1;\r\n\t\r\n\tPoll[] polls;\r\n\t\r\n\t/**\r\n\t * @notice Determines if user is admin\r\n\t */\r\n\tfunction isAdmin() public view returns (bool) {\r\n\t\treturn ( MembershipToken(membershipContract).balanceOf(msg.sender) >= 100 );\r\n\t}\r\n\r\n\t/**\r\n\t * @notice Determines if user is member\r\n\t */\r\n\tfunction isMember() public view returns (bool) {\r\n\t\treturn ( MembershipToken(membershipContract).balanceOf(msg.sender) > 0 );\r\n\t}\r\n\t\r\n\t/**\r\n\t * @notice Update the membership contract address in case of update\r\n\t */\r\n\tfunction updateMembershipContract(address _address) public onlyOwner {\r\n\t\tmembershipContract = _address;\r\n\t}\r\n\t/**\r\n\t * @notice returns membership contract address\r\n\t */\r\n\t function getMembershipContract() public view returns (address){\r\n\t\t return membershipContract;\r\n\t }\r\n\t\r\n\t/**\r\n\t * @notice Creates a new poll\r\n\t * @param _question The poll question\r\n\t * For now simple questions with yes/no answers only\r\n\t * Deadline can't be changed (will be set to 2 weeks)\r\n\t */\r\n\tfunction createPoll( string memory _question, uint256 _duration ) public onlyAdmin {\r\n\t\tuint majority = MembershipToken(membershipContract).totalSupply() / 2 + 1;\r\n\t\t\r\n\t\tPoll memory p = Poll({ \r\n\t\t\tquestion: _question,\r\n\t\t\tdeadline: block.number + _duration,\r\n\t\t\tyes: 0,\r\n\t\t\tanswers: 0,\r\n\t\t\tmajority: majority\r\n\t\t});\r\n\t\tpolls.push(p);\r\n\t}\r\n\t\r\n\t/**\r\n\t * @notice Get the count of existing polls\r\n\t */\r\n\tfunction getPollsCount() public view returns (uint) {\r\n\t\treturn polls.length;\r\n\t}\r\n\t\r\n\t/**\r\n\t* @notice Get poll information\r\n\t* @param _id The id of the poll\r\n\t*/\r\n\tfunction getPoll(uint _id) public view returns ( string memory, bool, uint, uint, uint, bool, address ){\r\n\t\tPoll memory p = polls[_id];\r\n\t\tbool hasVoted = polls[_id].hasVoted[msg.sender];\r\n\t\treturn (p.question, p.deadline >= block.number, p.answers, p.yes, p.majority, hasVoted, msg.sender);\r\n\t}\r\n\t\r\n\t/**\r\n\t * @notice Vote in a polls\r\n\t * @param _pollId Id of the poll\r\n\t * @param _answer A boolean meaning yes/no answer\r\n\t */\r\n\tfunction castVote(uint _pollId, bool _answer) public onlyMember{\r\n\t\tPoll storage p = polls[_pollId];\r\n\t\t// poll exists and isn't closed\r\n\t\trequire ( p.deadline > block.number , \"Vote closed\");\r\n\t\trequire ( p.hasVoted[msg.sender] == false, \"Already voted\" );\r\n\t\t\r\n\t\tuint userWeight = MembershipToken(membershipContract).balanceOf(msg.sender);\r\n\t\t\r\n\t\tp.answers += userWeight;\r\n\t\tif (_answer == true) p.yes += userWeight;\r\n\t\tp.hasVoted[msg.sender] = true;\r\n\t\tMembershipToken(membershipContract).lockUntil(msg.sender, block.number + LOCK_PERIOD);\r\n\t}\r\n\t\r\n\t/**\r\n\t * @notice Change the lock time for a vote\r\n\t */\r\n\t \r\n}",
  "sourcePath": "C:/data/crypto/blockwise/projects/bibo/kitcoin/kitcoinDAO/contracts/VotingWithToken.sol",
  "compiler": {
    "name": "solc",
    "version": "0.5.0+commit.1d4f565a.Emscripten.clang"
  },
  "schemaVersion": "3.0.2",
  "updatedAt": "2020-02-19T07:36:40.481Z",
  "devdoc": {
    "methods": {
      "castVote(uint256,bool)": {
        "params": {
          "_answer": "A boolean meaning yes/no answer\r",
          "_pollId": "Id of the poll\r"
        }
      },
      "createPoll(string,uint256)": {
        "params": {
          "_question": "The poll question\r For now simple questions with yes/no answers only\r Deadline can't be changed (will be set to 2 weeks)\r"
        }
      },
      "getPoll(uint256)": {
        "params": {
          "_id": "The id of the poll\r"
        }
      }
    },
    "title": "Voting app allowing foundation members to open votes and vote  \r"
  },
  "userdoc": {
    "methods": {
      "castVote(uint256,bool)": {
        "notice": "Vote in a polls\r"
      },
      "createPoll(string,uint256)": {
        "notice": "Creates a new poll\r"
      },
      "getMembershipContract()": {
        "notice": "returns membership contract address\r"
      },
      "getPoll(uint256)": {
        "notice": "Get poll information\r"
      },
      "getPollsCount()": {
        "notice": "Get the count of existing polls\r"
      },
      "isAdmin()": {
        "notice": "Determines if user is admin\r"
      },
      "isMember()": {
        "notice": "Determines if user is member\r"
      },
      "updateMembershipContract(address)": {
        "notice": "Update the membership contract address in case of update\r"
      }
    }
  }
}