{
  "contractName": "Voting",
  "abi": [
    {
      "inputs": [
        {
          "name": "_foundationContract",
          "type": "address"
        }
      ],
      "payable": false,
      "stateMutability": "nonpayable",
      "type": "constructor",
      "signature": "constructor"
    },
    {
      "constant": true,
      "inputs": [],
      "name": "getUserRole",
      "outputs": [
        {
          "name": "",
          "type": "uint256"
        }
      ],
      "payable": false,
      "stateMutability": "view",
      "type": "function",
      "signature": "0xbf04a10d"
    },
    {
      "constant": false,
      "inputs": [
        {
          "name": "_address",
          "type": "address"
        }
      ],
      "name": "updateFoundation",
      "outputs": [],
      "payable": false,
      "stateMutability": "nonpayable",
      "type": "function",
      "signature": "0xc3ab2510"
    },
    {
      "constant": false,
      "inputs": [
        {
          "name": "_question",
          "type": "bytes32"
        }
      ],
      "name": "createPoll",
      "outputs": [],
      "payable": false,
      "stateMutability": "nonpayable",
      "type": "function",
      "signature": "0xc6befedf"
    },
    {
      "constant": true,
      "inputs": [],
      "name": "getPollsCount",
      "outputs": [
        {
          "name": "",
          "type": "uint256"
        }
      ],
      "payable": false,
      "stateMutability": "view",
      "type": "function",
      "signature": "0xe0995916"
    },
    {
      "constant": true,
      "inputs": [
        {
          "name": "_id",
          "type": "uint256"
        }
      ],
      "name": "getPoll",
      "outputs": [
        {
          "name": "",
          "type": "bytes32"
        },
        {
          "name": "",
          "type": "uint256"
        },
        {
          "name": "",
          "type": "uint256"
        },
        {
          "name": "",
          "type": "uint256"
        },
        {
          "name": "",
          "type": "uint256"
        },
        {
          "name": "",
          "type": "bool"
        },
        {
          "name": "",
          "type": "address"
        }
      ],
      "payable": false,
      "stateMutability": "view",
      "type": "function",
      "signature": "0x1a8cbcaa"
    },
    {
      "constant": false,
      "inputs": [
        {
          "name": "_pollId",
          "type": "uint256"
        },
        {
          "name": "_answer",
          "type": "bool"
        }
      ],
      "name": "castVote",
      "outputs": [],
      "payable": false,
      "stateMutability": "nonpayable",
      "type": "function",
      "signature": "0x15373e3d"
    }
  ],
  "bytecode": "0x608060405234801561001057600080fd5b506040516020806107cd8339810180604052602081101561003057600080fd5b50516000805460018054600160a060020a0319908116331790915560a060020a60ff0219600160a060020a03909416911617919091167401000000000000000000000000000000000000000017905561073f8061008e6000396000f3fe6080604052600436106100775763ffffffff7c010000000000000000000000000000000000000000000000000000000060003504166315373e3d811461007c5780631a8cbcaa146100b0578063bf04a10d1461012a578063c3ab251014610151578063c6befedf14610191578063e0995916146101bb575b600080fd5b34801561008857600080fd5b506100ae6004803603604081101561009f57600080fd5b508035906020013515156101d0565b005b3480156100bc57600080fd5b506100da600480360360208110156100d357600080fd5b50356102dd565b6040805197885260208801969096528686019490945260608601929092526080850152151560a084015273ffffffffffffffffffffffffffffffffffffffff1660c0830152519081900360e00190f35b34801561013657600080fd5b5061013f6103b1565b60408051918252519081900360200190f35b34801561015d57600080fd5b506100ae6004803603602081101561017457600080fd5b503573ffffffffffffffffffffffffffffffffffffffff16610454565b34801561019d57600080fd5b506100ae600480360360208110156101b457600080fd5b50356104b4565b3480156101c757600080fd5b5061013f6106da565b60016101da6103b1565b101561024757604080517f08c379a000000000000000000000000000000000000000000000000000000000815260206004820152601360248201527f556e617574686f72697a656420616374696f6e00000000000000000000000000604482015290519081900360640190fd5b600060028381548110151561025857fe5b9060005260206000209060060201905043816001015411151561027a57600080fd5b33600090815260058201602052604090205460ff161561029957600080fd5b600381018054600190810190915582151514156102bc5760028101805460010190555b336000908152600590910160205260409020805460ff191660011790555050565b60008060008060008060006102f06106e0565b600280548a9081106102fe57fe5b906000526020600020906006020160a06040519081016040529081600082015481526020016001820154815260200160028201548152602001600382015481526020016004820154815250509050600060028a81548110151561035d57fe5b600091825260208083203380855260069390930201600501815260409283902054855191860151606087015194870151608090970151929f909e50939c50949a50985060ff90931696509194509092505050565b60008054604080517f44276733000000000000000000000000000000000000000000000000000000008152336004820152905173ffffffffffffffffffffffffffffffffffffffff90921691634427673391602480820192602092909190829003018186803b15801561042357600080fd5b505afa158015610437573d6000803e3d6000fd5b505050506040513d602081101561044d57600080fd5b5051905090565b60015473ffffffffffffffffffffffffffffffffffffffff16331461047857600080fd5b6000805473ffffffffffffffffffffffffffffffffffffffff191673ffffffffffffffffffffffffffffffffffffffff92909216919091179055565b60026104be6103b1565b101561052b57604080517f08c379a000000000000000000000000000000000000000000000000000000000815260206004820152601360248201527f556e617574686f72697a656420616374696f6e00000000000000000000000000604482015290519081900360640190fd5b60008054604080517f997072f7000000000000000000000000000000000000000000000000000000008152905160029273ffffffffffffffffffffffffffffffffffffffff169163997072f7916004808301926020929190829003018186803b15801561059757600080fd5b505afa1580156105ab573d6000803e3d6000fd5b505050506040513d60208110156105c157600080fd5b50518115156105cc57fe5b0460010190506105da6106e0565b506040805160a08101825292835243600501602084019081526000918401828152606085018381526080860194855260028054600181018255945294517f405787fa12a823e0f2b7631cc41b3ba8828b3321ca811111fa75cd3aa3bb5ace60069094029384015590517f405787fa12a823e0f2b7631cc41b3ba8828b3321ca811111fa75cd3aa3bb5acf830155517f405787fa12a823e0f2b7631cc41b3ba8828b3321ca811111fa75cd3aa3bb5ad082015591517f405787fa12a823e0f2b7631cc41b3ba8828b3321ca811111fa75cd3aa3bb5ad1830155517f405787fa12a823e0f2b7631cc41b3ba8828b3321ca811111fa75cd3aa3bb5ad290910155565b60025490565b60a0604051908101604052806000801916815260200160008152602001600081526020016000815260200160008152509056fea165627a7a7230582085b1f41a408811d1421d50995b8169135ccecd495d214c8484627dd51f50c2540029",
  "source": "pragma solidity  >=0.4.17;\r\n\r\nimport \"./KtcFoundation.sol\";\r\n\r\n\r\n/**  \r\n* @title Voting app allowing foundation members to open votes and vote  \r\n*/  \r\ncontract Voting {\r\n\taddress private foundationContract;\r\n\tbool private enabled;\r\n\taddress private owner;\r\n\t\r\n\tmodifier onlyOwner(){\r\n\t\trequire (msg.sender == owner );\r\n\t\t_;\r\n\t}\r\n\t\r\n\tmodifier onlyAdmin(){\r\n\t\trequire( getUserRole() == ROLE_ADMIN, \"Unauthorized action\");\r\n\t\t_;\r\n\t}\r\n\tmodifier onlyManager(){\r\n\t\trequire( getUserRole() >= ROLE_MANAGER, \"Unauthorized action\");\r\n\t\t_;\r\n\t}\r\n\tmodifier onlyMember(){\r\n\t\trequire( getUserRole() >= ROLE_MEMBER, \"Unauthorized action\");\r\n\t\t_;\r\n\t}\r\n\t\r\n\t\r\n\tconstructor (address _foundationContract) public {\r\n\t\tfoundationContract = _foundationContract;\r\n\t\towner = msg.sender;\r\n\t\tenabled = true;\r\n\t}\r\n\t\r\n\tstruct Poll\r\n    {\r\n        bytes32 question;\r\n\t\tuint256 deadline;\r\n\t\tuint yes;\r\n\t\tuint answers;\r\n\t\tuint majority;\r\n\t\tmapping (address => bool) hasVoted;\r\n    }\r\n\t\r\n\t//A list of roles\r\n\tuint constant ROLE_ADMIN = 3;\r\n\tuint constant ROLE_MANAGER = 2;\r\n\tuint constant ROLE_MEMBER = 1;\r\n\t\r\n\tPoll[] polls;\r\n\t\r\n\t/**\r\n\t * @notice Get msg sender role from the foundation contract\r\n\t */\r\n\tfunction getUserRole() public view returns (uint) {\r\n\t\treturn KtcFoundation(foundationContract).getRole(msg.sender);\r\n\t}\r\n\t\r\n\t/**\r\n\t * @notice Update the foundation contract address in case if foundation update\r\n\t */\r\n\tfunction updateFoundation(address _address) public onlyOwner {\r\n\t\tfoundationContract = _address;\r\n\t}\t\r\n\t\r\n\t/**\r\n\t * @notice Creates a new poll\r\n\t * @param _question The poll question\r\n\t * For now simple questions with yes/no answers only\r\n\t * Deadline can't be changed (will be set to 2 weeks)\r\n\t */\r\n\tfunction createPoll( bytes32 _question ) public onlyManager {\r\n\t\tuint majority = KtcFoundation(foundationContract).getMemberCount() / 2 + 1;\r\n\t\t\r\n\t\tPoll memory p = Poll({ \r\n\t\t\tquestion: _question,\r\n\t\t\tdeadline: block.number + 5,\r\n\t\t\tyes: 0,\r\n\t\t\tanswers: 0,\r\n\t\t\tmajority: majority\r\n\t\t});\r\n\t\tpolls.push(p);\r\n\t}\r\n\t\r\n\t/**\r\n\t * @notice Get the count of existing polls\r\n\t */\r\n\tfunction getPollsCount() public view returns (uint) {\r\n\t\treturn polls.length;\r\n\t}\r\n\t\r\n\t/**\r\n\t* @notice Get poll information\r\n\t* @param _id The id of the poll\r\n\t*/\r\n\tfunction getPoll(uint _id) public view returns ( bytes32, uint, uint, uint, uint, bool, address ){\r\n\t\tPoll memory p = polls[_id];\r\n\t\tbool hasVoted = polls[_id].hasVoted[msg.sender];\r\n\t\treturn (p.question, p.deadline, p.answers, p.yes, p.majority, hasVoted, msg.sender);\r\n\t}\r\n\t\r\n\t/**\r\n\t * @notice Vote in a polls\r\n\t * @param _pollId Id of the poll\r\n\t * @param _answer A boolean meaning yes/no answer\r\n\t */\r\n\tfunction castVote(uint _pollId, bool _answer) public onlyMember{\r\n\t\tPoll storage p = polls[_pollId];\r\n\t\t// poll exists and isn't closed\r\n\t\trequire ( p.deadline > block.number );\r\n\t\trequire ( p.hasVoted[msg.sender] == false );\r\n\t\t\r\n\t\tp.answers += 1;\r\n\t\tif (_answer == true) p.yes += 1;\r\n\t\tp.hasVoted[msg.sender] = true;\r\n\t}\r\n}",
  "sourcePath": "C:/data/crypto/blockwise/projects/bibo/kitcoin/kitcoinDAO/contracts/Voting.sol",
  "compiler": {
    "name": "solc",
    "version": "0.5.0+commit.1d4f565a.Emscripten.clang"
  },
  "schemaVersion": "3.0.2",
  "updatedAt": "2020-02-18T04:40:16.877Z",
  "devdoc": {
    "methods": {
      "castVote(uint256,bool)": {
        "params": {
          "_answer": "A boolean meaning yes/no answer\r",
          "_pollId": "Id of the poll\r"
        }
      },
      "createPoll(bytes32)": {
        "params": {
          "_question": "The poll question\r For now simple questions with yes/no answers only\r Deadline can't be changed (will be set to 2 weeks)\r"
        }
      },
      "getPoll(uint256)": {
        "params": {
          "_id": "The id of the poll\r"
        }
      }
    },
    "title": "Voting app allowing foundation members to open votes and vote  \r"
  },
  "userdoc": {
    "methods": {
      "castVote(uint256,bool)": {
        "notice": "Vote in a polls\r"
      },
      "createPoll(bytes32)": {
        "notice": "Creates a new poll\r"
      },
      "getPoll(uint256)": {
        "notice": "Get poll information\r"
      },
      "getPollsCount()": {
        "notice": "Get the count of existing polls\r"
      },
      "getUserRole()": {
        "notice": "Get msg sender role from the foundation contract\r"
      },
      "updateFoundation(address)": {
        "notice": "Update the foundation contract address in case if foundation update\r"
      }
    }
  }
}