{
  "contractName": "VotingWithTokens",
  "abi": [
    {
      "constant": true,
      "inputs": [],
      "name": "LOCK_PERIOD",
      "outputs": [
        {
          "name": "",
          "type": "uint256"
        }
      ],
      "payable": false,
      "stateMutability": "view",
      "type": "function",
      "signature": "0x1820cabb"
    },
    {
      "constant": true,
      "inputs": [],
      "name": "VOTE_PERIOD",
      "outputs": [
        {
          "name": "",
          "type": "uint256"
        }
      ],
      "payable": false,
      "stateMutability": "view",
      "type": "function",
      "signature": "0xa2facc29"
    },
    {
      "inputs": [
        {
          "name": "_membershipContract",
          "type": "address"
        }
      ],
      "payable": false,
      "stateMutability": "nonpayable",
      "type": "constructor",
      "signature": "constructor"
    },
    {
      "constant": true,
      "inputs": [],
      "name": "isAdmin",
      "outputs": [
        {
          "name": "",
          "type": "bool"
        }
      ],
      "payable": false,
      "stateMutability": "view",
      "type": "function",
      "signature": "0xb6db75a0"
    },
    {
      "constant": true,
      "inputs": [],
      "name": "isMember",
      "outputs": [
        {
          "name": "",
          "type": "bool"
        }
      ],
      "payable": false,
      "stateMutability": "view",
      "type": "function",
      "signature": "0xd02982cf"
    },
    {
      "constant": false,
      "inputs": [
        {
          "name": "_address",
          "type": "address"
        }
      ],
      "name": "updateMembershipContract",
      "outputs": [],
      "payable": false,
      "stateMutability": "nonpayable",
      "type": "function",
      "signature": "0xccc48940"
    },
    {
      "constant": true,
      "inputs": [],
      "name": "getMembershipContract",
      "outputs": [
        {
          "name": "",
          "type": "address"
        }
      ],
      "payable": false,
      "stateMutability": "view",
      "type": "function",
      "signature": "0x3f6dd239"
    },
    {
      "constant": false,
      "inputs": [
        {
          "name": "_question",
          "type": "bytes32"
        }
      ],
      "name": "createPoll",
      "outputs": [],
      "payable": false,
      "stateMutability": "nonpayable",
      "type": "function",
      "signature": "0xc6befedf"
    },
    {
      "constant": true,
      "inputs": [],
      "name": "getPollsCount",
      "outputs": [
        {
          "name": "",
          "type": "uint256"
        }
      ],
      "payable": false,
      "stateMutability": "view",
      "type": "function",
      "signature": "0xe0995916"
    },
    {
      "constant": true,
      "inputs": [
        {
          "name": "_id",
          "type": "uint256"
        }
      ],
      "name": "getPoll",
      "outputs": [
        {
          "name": "",
          "type": "bytes32"
        },
        {
          "name": "",
          "type": "uint256"
        },
        {
          "name": "",
          "type": "uint256"
        },
        {
          "name": "",
          "type": "uint256"
        },
        {
          "name": "",
          "type": "uint256"
        },
        {
          "name": "",
          "type": "bool"
        },
        {
          "name": "",
          "type": "address"
        }
      ],
      "payable": false,
      "stateMutability": "view",
      "type": "function",
      "signature": "0x1a8cbcaa"
    },
    {
      "constant": false,
      "inputs": [
        {
          "name": "_pollId",
          "type": "uint256"
        },
        {
          "name": "_answer",
          "type": "bool"
        }
      ],
      "name": "castVote",
      "outputs": [],
      "payable": false,
      "stateMutability": "nonpayable",
      "type": "function",
      "signature": "0x15373e3d"
    }
  ],
  "bytecode": "0x60806040526005600255600a60035534801561001a57600080fd5b50604051602080610a6b8339810180604052602081101561003a57600080fd5b50516000805460018054600160a060020a0319908116331790915560a060020a60ff0219600160a060020a0390941691161791909116740100000000000000000000000000000000000000001790556109d3806100986000396000f3fe6080604052600436106100a35763ffffffff7c010000000000000000000000000000000000000000000000000000000060003504166315373e3d81146100a85780631820cabb146100dc5780631a8cbcaa146101035780633f6dd23914610170578063a2facc29146101a1578063b6db75a0146101b6578063c6befedf146101df578063ccc4894014610209578063d02982cf1461023c578063e099591614610251575b600080fd5b3480156100b457600080fd5b506100da600480360360408110156100cb57600080fd5b50803590602001351515610266565b005b3480156100e857600080fd5b506100f1610508565b60408051918252519081900360200190f35b34801561010f57600080fd5b5061012d6004803603602081101561012657600080fd5b503561050e565b6040805197885260208801969096528686019490945260608601929092526080850152151560a0840152600160a060020a031660c0830152519081900360e00190f35b34801561017c57600080fd5b506101856105e2565b60408051600160a060020a039092168252519081900360200190f35b3480156101ad57600080fd5b506100f16105f1565b3480156101c257600080fd5b506101cb6105f7565b604080519115158252519081900360200190f35b3480156101eb57600080fd5b506100da6004803603602081101561020257600080fd5b503561068f565b34801561021557600080fd5b506100da6004803603602081101561022c57600080fd5b5035600160a060020a0316610892565b34801561024857600080fd5b506101cb6108d8565b34801561025d57600080fd5b506100f161096e565b61026e6108d8565b15156001146102c7576040805160e560020a62461bcd02815260206004820152601360248201527f556e617574686f72697a656420616374696f6e00000000000000000000000000604482015290519081900360640190fd5b60006004838154811015156102d857fe5b90600052602060002090600602019050438160010154111515610345576040805160e560020a62461bcd02815260206004820152600b60248201527f566f746520636c6f736564000000000000000000000000000000000000000000604482015290519081900360640190fd5b33600090815260058201602052604090205460ff16156103af576040805160e560020a62461bcd02815260206004820152600d60248201527f416c726561647920766f74656400000000000000000000000000000000000000604482015290519081900360640190fd5b60008054604080517f70a082310000000000000000000000000000000000000000000000000000000081523360048201529051600160a060020a03909216916370a0823191602480820192602092909190829003018186803b15801561041457600080fd5b505afa158015610428573d6000803e3d6000fd5b505050506040513d602081101561043e57600080fd5b50516003830180548201905590508215156001141561046257600282018054820190555b336000818152600584016020526040808220805460ff19166001179055815460025482517f6e0113f80000000000000000000000000000000000000000000000000000000081526004810195909552430160248501529051600160a060020a039190911692636e0113f892604480830193919282900301818387803b1580156104ea57600080fd5b505af11580156104fe573d6000803e3d6000fd5b5050505050505050565b60025481565b6000806000806000806000610521610974565b600480548a90811061052f57fe5b906000526020600020906006020160a06040519081016040529081600082015481526020016001820154815260200160028201548152602001600382015481526020016004820154815250509050600060048a81548110151561058e57fe5b600091825260208083203380855260069390930201600501815260409283902054855191860151606087015194870151608090970151929f909e50939c50949a50985060ff90931696509194509092505050565b600054600160a060020a031690565b60035481565b60008054604080517f70a082310000000000000000000000000000000000000000000000000000000081523360048201529051606492600160a060020a0316916370a08231916024808301926020929190829003018186803b15801561065c57600080fd5b505afa158015610670573d6000803e3d6000fd5b505050506040513d602081101561068657600080fd5b50511015905090565b6106976105f7565b15156001146106f0576040805160e560020a62461bcd02815260206004820152601360248201527f556e617574686f72697a656420616374696f6e00000000000000000000000000604482015290519081900360640190fd5b60008054604080517f18160ddd0000000000000000000000000000000000000000000000000000000081529051600292600160a060020a0316916318160ddd916004808301926020929190829003018186803b15801561074f57600080fd5b505afa158015610763573d6000803e3d6000fd5b505050506040513d602081101561077957600080fd5b505181151561078457fe5b046001019050610792610974565b506040805160a08101825292835243600501602084019081526000918401828152606085018381526080860194855260048054600181018255945294517f8a35acfbc15ff81a39ae7d344fd709f28e8600b4aa8c65c6b64bfe7fe36bd19b60069094029384015590517f8a35acfbc15ff81a39ae7d344fd709f28e8600b4aa8c65c6b64bfe7fe36bd19c830155517f8a35acfbc15ff81a39ae7d344fd709f28e8600b4aa8c65c6b64bfe7fe36bd19d82015591517f8a35acfbc15ff81a39ae7d344fd709f28e8600b4aa8c65c6b64bfe7fe36bd19e830155517f8a35acfbc15ff81a39ae7d344fd709f28e8600b4aa8c65c6b64bfe7fe36bd19f90910155565b600154600160a060020a031633146108a957600080fd5b6000805473ffffffffffffffffffffffffffffffffffffffff1916600160a060020a0392909216919091179055565b60008054604080517f70a0823100000000000000000000000000000000000000000000000000000000815233600482015290518392600160a060020a0316916370a08231916024808301926020929190829003018186803b15801561093c57600080fd5b505afa158015610950573d6000803e3d6000fd5b505050506040513d602081101561096657600080fd5b505111905090565b60045490565b60a0604051908101604052806000801916815260200160008152602001600081526020016000815260200160008152509056fea165627a7a72305820fadd6e640e111166a4783656808a6b8ea3de3796e959d4d85f5ed4b6089152080029",
  "source": "pragma solidity  >=0.4.17;\r\n\r\nimport \"./MembershipToken.sol\";\r\n\r\n\r\n/**  \r\n* @title Voting app allowing foundation members to open votes and vote  \r\n*/  \r\ncontract VotingWithTokens {\r\n\taddress private membershipContract;\r\n\tbool private enabled;\r\n\taddress private owner;\r\n\t\r\n\tuint public LOCK_PERIOD = 5;\r\n\tuint public VOTE_PERIOD = 10;\r\n\t\r\n\tmodifier onlyOwner(){\r\n\t\trequire (msg.sender == owner );\r\n\t\t_;\r\n\t}\r\n\t\r\n\tmodifier onlyAdmin(){\r\n\t\trequire( isAdmin() == true, \"Unauthorized action\");\r\n\t\t_;\r\n\t}\r\n\tmodifier onlyMember(){\r\n\t\trequire( isMember() == true, \"Unauthorized action\");\r\n\t\t_;\r\n\t}\r\n\t\r\n\t\r\n\tconstructor (address _membershipContract) public {\r\n\t\tmembershipContract = _membershipContract;\r\n\t\towner = msg.sender;\r\n\t\tenabled = true;\r\n\t}\r\n\t\r\n\tstruct Poll\r\n    {\r\n        bytes32 question;\r\n\t\tuint256 deadline;\r\n\t\tuint yes;\r\n\t\tuint answers;\r\n\t\tuint majority;\r\n\t\tmapping (address => bool) hasVoted;\r\n    }\r\n\t\r\n\t//A membership token threshold\r\n\tuint constant ROLE_ADMIN = 100;\r\n\tuint constant ROLE_MEMBER = 1;\r\n\t\r\n\tPoll[] polls;\r\n\t\r\n\t/**\r\n\t * @notice Determines if user is admin\r\n\t */\r\n\tfunction isAdmin() public view returns (bool) {\r\n\t\treturn ( MembershipToken(membershipContract).balanceOf(msg.sender) >= 100 );\r\n\t}\r\n\r\n\t/**\r\n\t * @notice Determines if user is member\r\n\t */\r\n\tfunction isMember() public view returns (bool) {\r\n\t\treturn ( MembershipToken(membershipContract).balanceOf(msg.sender) > 0 );\r\n\t}\r\n\t\r\n\t/**\r\n\t * @notice Update the membership contract address in case of update\r\n\t */\r\n\tfunction updateMembershipContract(address _address) public onlyOwner {\r\n\t\tmembershipContract = _address;\r\n\t}\r\n\t/**\r\n\t * @notice returns membership contract address\r\n\t */\r\n\t function getMembershipContract() public view returns (address){\r\n\t\t return membershipContract;\r\n\t }\r\n\t\r\n\t/**\r\n\t * @notice Creates a new poll\r\n\t * @param _question The poll question\r\n\t * For now simple questions with yes/no answers only\r\n\t * Deadline can't be changed (will be set to 2 weeks)\r\n\t */\r\n\tfunction createPoll( bytes32 _question ) public onlyAdmin {\r\n\t\tuint majority = MembershipToken(membershipContract).totalSupply() / 2 + 1;\r\n\t\t\r\n\t\tPoll memory p = Poll({ \r\n\t\t\tquestion: _question,\r\n\t\t\tdeadline: block.number + 5,\r\n\t\t\tyes: 0,\r\n\t\t\tanswers: 0,\r\n\t\t\tmajority: majority\r\n\t\t});\r\n\t\tpolls.push(p);\r\n\t}\r\n\t\r\n\t/**\r\n\t * @notice Get the count of existing polls\r\n\t */\r\n\tfunction getPollsCount() public view returns (uint) {\r\n\t\treturn polls.length;\r\n\t}\r\n\t\r\n\t/**\r\n\t* @notice Get poll information\r\n\t* @param _id The id of the poll\r\n\t*/\r\n\tfunction getPoll(uint _id) public view returns ( bytes32, uint, uint, uint, uint, bool, address ){\r\n\t\tPoll memory p = polls[_id];\r\n\t\tbool hasVoted = polls[_id].hasVoted[msg.sender];\r\n\t\treturn (p.question, p.deadline, p.answers, p.yes, p.majority, hasVoted, msg.sender);\r\n\t}\r\n\t\r\n\t/**\r\n\t * @notice Vote in a polls\r\n\t * @param _pollId Id of the poll\r\n\t * @param _answer A boolean meaning yes/no answer\r\n\t */\r\n\tfunction castVote(uint _pollId, bool _answer) public onlyMember{\r\n\t\tPoll storage p = polls[_pollId];\r\n\t\t// poll exists and isn't closed\r\n\t\trequire ( p.deadline > block.number , \"Vote closed\");\r\n\t\trequire ( p.hasVoted[msg.sender] == false, \"Already voted\" );\r\n\t\t\r\n\t\tuint userWeight = MembershipToken(membershipContract).balanceOf(msg.sender);\r\n\t\t\r\n\t\tp.answers += userWeight;\r\n\t\tif (_answer == true) p.yes += userWeight;\r\n\t\tp.hasVoted[msg.sender] = true;\r\n\t\tMembershipToken(membershipContract).lockUntil(msg.sender, block.number + LOCK_PERIOD);\r\n\t}\r\n\t\r\n\t/**\r\n\t * @notice Change the lock time for a vote\r\n\t */\r\n\t \r\n}",
  "sourcePath": "C:/data/crypto/blockwise/projects/bibo/kitcoin/kitcoinDAO/contracts/VotingWithToken.sol",
  "compiler": {
    "name": "solc",
    "version": "0.5.0+commit.1d4f565a.Emscripten.clang"
  },
  "schemaVersion": "3.0.2",
  "updatedAt": "2020-02-14T09:30:12.760Z",
  "devdoc": {
    "methods": {
      "castVote(uint256,bool)": {
        "params": {
          "_answer": "A boolean meaning yes/no answer\r",
          "_pollId": "Id of the poll\r"
        }
      },
      "createPoll(bytes32)": {
        "params": {
          "_question": "The poll question\r For now simple questions with yes/no answers only\r Deadline can't be changed (will be set to 2 weeks)\r"
        }
      },
      "getPoll(uint256)": {
        "params": {
          "_id": "The id of the poll\r"
        }
      }
    },
    "title": "Voting app allowing foundation members to open votes and vote  \r"
  },
  "userdoc": {
    "methods": {
      "castVote(uint256,bool)": {
        "notice": "Vote in a polls\r"
      },
      "createPoll(bytes32)": {
        "notice": "Creates a new poll\r"
      },
      "getMembershipContract()": {
        "notice": "returns membership contract address\r"
      },
      "getPoll(uint256)": {
        "notice": "Get poll information\r"
      },
      "getPollsCount()": {
        "notice": "Get the count of existing polls\r"
      },
      "isAdmin()": {
        "notice": "Determines if user is admin\r"
      },
      "isMember()": {
        "notice": "Determines if user is member\r"
      },
      "updateMembershipContract(address)": {
        "notice": "Update the membership contract address in case of update\r"
      }
    }
  }
}